:100000000C9434000C9451000C9451000C94510049
:100010000C9451000C9451000C9451000C9451001C
:100020000C9451000C9451000C9451000C9451000C
:100030000C9451000C945C000C9451000C945100F1
:100040000C9451000C9451000C9451000C945100EC
:100050000C9451000C9451000C9451000C945100DC
:100060000C9451000C94510011241FBECFEFD4E02A
:10007000DEBFCDBF11E0A0E0B1E0EEE1F2E002C0F2
:1000800005900D92A030B107D9F721E0A0E0B1E0D2
:1000900001C01D92A230B207E1F70E9453000C94F8
:1000A0000D010C9400000E9473000E9488000E94C1
:1000B0008F000E94C700F9CF1F920F920FB60F92C8
:1000C00011248F939F9380910001909101010196DB
:1000D00090930101809300019F918F910F900FBE2B
:1000E0000F901F901895EFE6F0E08081816080838B
:1000F000109280008EEF84B985B1806C85B9289A02
:10010000789487EA91E60197F1F700C0000008951E
:10011000299A83E08A95F1F70000299808951092B2
:100120008500109284008091810081648093810019
:1001300086B3816286BBB59BFECF1092850010927C
:100140008400809181008F7B8093810086B38162DF
:1001500086BBB59BFECF4091860050918700A09151
:100160000001B091010110920101109200012FEFE6
:100170003FEF0E94F700DC01CB01840F951FA11D0A
:10018000B11D6AE370E00E94E300CB01089544973B
:1001900020F085B1846185B908952A982C982FE3C1
:1001A0008DE093E0215080409040E1F700C00000D6
:1001B0002B9A2C9A83E294EF0197F1F700C000008C
:1001C0002B982C980895AA1BBB1B51E107C0AA1FAE
:1001D000BB1FA617B70710F0A61BB70B881F991FE8
:1001E0005A95A9F780959095BC01CD0108950E947C
:1001F000FE00B7FF0895821B930B0895A29FB001E4
:10020000B39FC001A39F700D811D1124911DB29F4A
:0E021000700D811D1124911D0895F894FFCFEB
:00000001FF
